{
  "contractName": "StarToken",
  "abi": [
    {
      "inputs": [
        {
          "internalType": "string",
          "name": "_name",
          "type": "string"
        },
        {
          "internalType": "string",
          "name": "_symbol",
          "type": "string"
        }
      ],
      "stateMutability": "nonpayable",
      "type": "constructor"
    },
    {
      "anonymous": false,
      "inputs": [
        {
          "indexed": true,
          "internalType": "address",
          "name": "owner",
          "type": "address"
        },
        {
          "indexed": true,
          "internalType": "address",
          "name": "approved",
          "type": "address"
        },
        {
          "indexed": true,
          "internalType": "uint256",
          "name": "tokenId",
          "type": "uint256"
        }
      ],
      "name": "Approval",
      "type": "event"
    },
    {
      "anonymous": false,
      "inputs": [
        {
          "indexed": true,
          "internalType": "address",
          "name": "owner",
          "type": "address"
        },
        {
          "indexed": true,
          "internalType": "address",
          "name": "operator",
          "type": "address"
        },
        {
          "indexed": false,
          "internalType": "bool",
          "name": "approved",
          "type": "bool"
        }
      ],
      "name": "ApprovalForAll",
      "type": "event"
    },
    {
      "anonymous": false,
      "inputs": [
        {
          "indexed": true,
          "internalType": "address",
          "name": "from",
          "type": "address"
        },
        {
          "indexed": true,
          "internalType": "address",
          "name": "to",
          "type": "address"
        },
        {
          "indexed": true,
          "internalType": "uint256",
          "name": "tokenId",
          "type": "uint256"
        }
      ],
      "name": "Transfer",
      "type": "event"
    },
    {
      "inputs": [
        {
          "internalType": "address",
          "name": "to",
          "type": "address"
        },
        {
          "internalType": "uint256",
          "name": "tokenId",
          "type": "uint256"
        }
      ],
      "name": "approve",
      "outputs": [],
      "stateMutability": "nonpayable",
      "type": "function"
    },
    {
      "inputs": [
        {
          "internalType": "address",
          "name": "owner",
          "type": "address"
        }
      ],
      "name": "balanceOf",
      "outputs": [
        {
          "internalType": "uint256",
          "name": "",
          "type": "uint256"
        }
      ],
      "stateMutability": "view",
      "type": "function",
      "constant": true
    },
    {
      "inputs": [
        {
          "internalType": "uint256",
          "name": "tokenId",
          "type": "uint256"
        }
      ],
      "name": "getApproved",
      "outputs": [
        {
          "internalType": "address",
          "name": "",
          "type": "address"
        }
      ],
      "stateMutability": "view",
      "type": "function",
      "constant": true
    },
    {
      "inputs": [
        {
          "internalType": "address",
          "name": "owner",
          "type": "address"
        },
        {
          "internalType": "address",
          "name": "operator",
          "type": "address"
        }
      ],
      "name": "isApprovedForAll",
      "outputs": [
        {
          "internalType": "bool",
          "name": "",
          "type": "bool"
        }
      ],
      "stateMutability": "view",
      "type": "function",
      "constant": true
    },
    {
      "inputs": [],
      "name": "name",
      "outputs": [
        {
          "internalType": "string",
          "name": "",
          "type": "string"
        }
      ],
      "stateMutability": "view",
      "type": "function",
      "constant": true
    },
    {
      "inputs": [
        {
          "internalType": "uint256",
          "name": "tokenId",
          "type": "uint256"
        }
      ],
      "name": "ownerOf",
      "outputs": [
        {
          "internalType": "address",
          "name": "",
          "type": "address"
        }
      ],
      "stateMutability": "view",
      "type": "function",
      "constant": true
    },
    {
      "inputs": [
        {
          "internalType": "address",
          "name": "from",
          "type": "address"
        },
        {
          "internalType": "address",
          "name": "to",
          "type": "address"
        },
        {
          "internalType": "uint256",
          "name": "tokenId",
          "type": "uint256"
        }
      ],
      "name": "safeTransferFrom",
      "outputs": [],
      "stateMutability": "nonpayable",
      "type": "function"
    },
    {
      "inputs": [
        {
          "internalType": "address",
          "name": "from",
          "type": "address"
        },
        {
          "internalType": "address",
          "name": "to",
          "type": "address"
        },
        {
          "internalType": "uint256",
          "name": "tokenId",
          "type": "uint256"
        },
        {
          "internalType": "bytes",
          "name": "_data",
          "type": "bytes"
        }
      ],
      "name": "safeTransferFrom",
      "outputs": [],
      "stateMutability": "nonpayable",
      "type": "function"
    },
    {
      "inputs": [
        {
          "internalType": "address",
          "name": "operator",
          "type": "address"
        },
        {
          "internalType": "bool",
          "name": "approved",
          "type": "bool"
        }
      ],
      "name": "setApprovalForAll",
      "outputs": [],
      "stateMutability": "nonpayable",
      "type": "function"
    },
    {
      "inputs": [
        {
          "internalType": "bytes4",
          "name": "interfaceId",
          "type": "bytes4"
        }
      ],
      "name": "supportsInterface",
      "outputs": [
        {
          "internalType": "bool",
          "name": "",
          "type": "bool"
        }
      ],
      "stateMutability": "view",
      "type": "function",
      "constant": true
    },
    {
      "inputs": [],
      "name": "symbol",
      "outputs": [
        {
          "internalType": "string",
          "name": "",
          "type": "string"
        }
      ],
      "stateMutability": "view",
      "type": "function",
      "constant": true
    },
    {
      "inputs": [
        {
          "internalType": "uint256",
          "name": "",
          "type": "uint256"
        }
      ],
      "name": "tokenIdToPrice",
      "outputs": [
        {
          "internalType": "uint256",
          "name": "",
          "type": "uint256"
        }
      ],
      "stateMutability": "view",
      "type": "function",
      "constant": true
    },
    {
      "inputs": [
        {
          "internalType": "uint256",
          "name": "",
          "type": "uint256"
        }
      ],
      "name": "tokenIdToStarInfo",
      "outputs": [
        {
          "internalType": "string",
          "name": "name",
          "type": "string"
        },
        {
          "internalType": "string",
          "name": "date",
          "type": "string"
        }
      ],
      "stateMutability": "view",
      "type": "function",
      "constant": true
    },
    {
      "inputs": [
        {
          "internalType": "uint256",
          "name": "tokenId",
          "type": "uint256"
        }
      ],
      "name": "tokenURI",
      "outputs": [
        {
          "internalType": "string",
          "name": "",
          "type": "string"
        }
      ],
      "stateMutability": "view",
      "type": "function",
      "constant": true
    },
    {
      "inputs": [
        {
          "internalType": "address",
          "name": "from",
          "type": "address"
        },
        {
          "internalType": "address",
          "name": "to",
          "type": "address"
        },
        {
          "internalType": "uint256",
          "name": "tokenId",
          "type": "uint256"
        }
      ],
      "name": "transferFrom",
      "outputs": [],
      "stateMutability": "nonpayable",
      "type": "function"
    },
    {
      "inputs": [
        {
          "internalType": "string",
          "name": "_name",
          "type": "string"
        },
        {
          "internalType": "string",
          "name": "_date",
          "type": "string"
        },
        {
          "internalType": "uint256",
          "name": "_tokenId",
          "type": "uint256"
        }
      ],
      "name": "createStar",
      "outputs": [],
      "stateMutability": "nonpayable",
      "type": "function"
    },
    {
      "inputs": [
        {
          "internalType": "uint256",
          "name": "_tokenId",
          "type": "uint256"
        },
        {
          "internalType": "uint256",
          "name": "_price",
          "type": "uint256"
        }
      ],
      "name": "putStarUpForSale",
      "outputs": [],
      "stateMutability": "nonpayable",
      "type": "function"
    },
    {
      "inputs": [
        {
          "internalType": "uint256",
          "name": "_tokenId",
          "type": "uint256"
        }
      ],
      "name": "buyStar",
      "outputs": [],
      "stateMutability": "payable",
      "type": "function",
      "payable": true
    },
    {
      "inputs": [
        {
          "internalType": "uint256",
          "name": "_tokenId1",
          "type": "uint256"
        },
        {
          "internalType": "uint256",
          "name": "_tokenId2",
          "type": "uint256"
        }
      ],
      "name": "exchangeStars",
      "outputs": [],
      "stateMutability": "nonpayable",
      "type": "function"
    },
    {
      "inputs": [
        {
          "internalType": "address",
          "name": "_to",
          "type": "address"
        },
        {
          "internalType": "uint256",
          "name": "_tokenId",
          "type": "uint256"
        }
      ],
      "name": "transferStar",
      "outputs": [],
      "stateMutability": "nonpayable",
      "type": "function"
    },
    {
      "inputs": [
        {
          "internalType": "uint256",
          "name": "_tokenId",
          "type": "uint256"
        }
      ],
      "name": "lookUpTokenIdToStarInfo",
      "outputs": [
        {
          "internalType": "string",
          "name": "_name",
          "type": "string"
        },
        {
          "internalType": "string",
          "name": "_date",
          "type": "string"
        }
      ],
      "stateMutability": "view",
      "type": "function",
      "constant": true
    }
  ],
  "bytecode": "0x60806040523480156200001157600080fd5b506040516200342638038062003426833981810160405281019062000037919062000197565b818181600090805190602001906200005192919062000075565b5080600190805190602001906200006a92919062000075565b50505050506200033b565b8280546200008390620002a7565b90600052602060002090601f016020900481019282620000a75760008555620000f3565b82601f10620000c257805160ff1916838001178555620000f3565b82800160010185558215620000f3579182015b82811115620000f2578251825591602001919060010190620000d5565b5b50905062000102919062000106565b5090565b5b808211156200012157600081600090555060010162000107565b5090565b60006200013c62000136846200023e565b6200020a565b9050828152602081018484840111156200015557600080fd5b6200016284828562000271565b509392505050565b600082601f8301126200017c57600080fd5b81516200018e84826020860162000125565b91505092915050565b60008060408385031215620001ab57600080fd5b600083015167ffffffffffffffff811115620001c657600080fd5b620001d4858286016200016a565b925050602083015167ffffffffffffffff811115620001f257600080fd5b62000200858286016200016a565b9150509250929050565b6000604051905081810181811067ffffffffffffffff821117156200023457620002336200030c565b5b8060405250919050565b600067ffffffffffffffff8211156200025c576200025b6200030c565b5b601f19601f8301169050602081019050919050565b60005b838110156200029157808201518184015260208101905062000274565b83811115620002a1576000848401525b50505050565b60006002820490506001821680620002c057607f821691505b60208210811415620002d757620002d6620002dd565b5b50919050565b7f4e487b7100000000000000000000000000000000000000000000000000000000600052602260045260246000fd5b7f4e487b7100000000000000000000000000000000000000000000000000000000600052604160045260246000fd5b6130db806200034b6000396000f3fe60806040526004361061012a5760003560e01c806342842e0e116100ab578063a22cb4651161006f578063a22cb46514610407578063b88d4fde14610430578063c87b56dd14610459578063e7152a5c14610496578063e985e9c5146104bf578063f4812eb9146104fc5761012a565b806342842e0e14610310578063438e5160146103395780636352211e1461036257806370a082311461039f57806395d89b41146103dc5761012a565b80631967fd98116100f25780631967fd981461022657806323b872dd146102645780632f1c34ef1461028d578063316a4361146102a95780633d912858146102d25761012a565b806301ffc9a71461012f57806306fdde031461016c578063081812fc14610197578063095ea7b3146101d457806315e0afa5146101fd575b600080fd5b34801561013b57600080fd5b50610156600480360381019061015191906121c9565b610539565b60405161016391906129fc565b60405180910390f35b34801561017857600080fd5b5061018161061b565b60405161018e9190612a17565b60405180910390f35b3480156101a357600080fd5b506101be60048036038101906101b9919061229a565b6106ad565b6040516101cb9190612995565b60405180910390f35b3480156101e057600080fd5b506101fb60048036038101906101f6919061218d565b610732565b005b34801561020957600080fd5b50610224600480360381019061021f91906122c3565b61084a565b005b34801561023257600080fd5b5061024d6004803603810190610248919061229a565b6108ee565b60405161025b929190612a39565b60405180910390f35b34801561027057600080fd5b5061028b60048036038101906102869190612087565b610a22565b005b6102a760048036038101906102a2919061229a565b610a82565b005b3480156102b557600080fd5b506102d060048036038101906102cb91906122c3565b610c0d565b005b3480156102de57600080fd5b506102f960048036038101906102f4919061229a565b610c69565b604051610307929190612a39565b60405180910390f35b34801561031c57600080fd5b5061033760048036038101906103329190612087565b610db3565b005b34801561034557600080fd5b50610360600480360381019061035b919061221b565b610dd3565b005b34801561036e57600080fd5b506103896004803603810190610384919061229a565b610e4d565b6040516103969190612995565b60405180910390f35b3480156103ab57600080fd5b506103c660048036038101906103c19190612022565b610eff565b6040516103d39190612c70565b60405180910390f35b3480156103e857600080fd5b506103f1610fb7565b6040516103fe9190612a17565b60405180910390f35b34801561041357600080fd5b5061042e60048036038101906104299190612151565b611049565b005b34801561043c57600080fd5b50610457600480360381019061045291906120d6565b6111ca565b005b34801561046557600080fd5b50610480600480360381019061047b919061229a565b61122c565b60405161048d9190612a17565b60405180910390f35b3480156104a257600080fd5b506104bd60048036038101906104b8919061218d565b6112d3565b005b3480156104cb57600080fd5b506104e660048036038101906104e1919061204b565b611322565b6040516104f391906129fc565b60405180910390f35b34801561050857600080fd5b50610523600480360381019061051e919061229a565b6113b6565b6040516105309190612c70565b60405180910390f35b60007f80ac58cd000000000000000000000000000000000000000000000000000000007bffffffffffffffffffffffffffffffffffffffffffffffffffffffff1916827bffffffffffffffffffffffffffffffffffffffffffffffffffffffff1916148061060457507f5b5e139f000000000000000000000000000000000000000000000000000000007bffffffffffffffffffffffffffffffffffffffffffffffffffffffff1916827bffffffffffffffffffffffffffffffffffffffffffffffffffffffff1916145b806106145750610613826113ce565b5b9050919050565b60606000805461062a90612ed0565b80601f016020809104026020016040519081016040528092919081815260200182805461065690612ed0565b80156106a35780601f10610678576101008083540402835291602001916106a3565b820191906000526020600020905b81548152906001019060200180831161068657829003601f168201915b5050505050905090565b60006106b882611438565b6106f7576040517f08c379a00000000000000000000000000000000000000000000000000000000081526004016106ee90612b90565b60405180910390fd5b6004600083815260200190815260200160002060009054906101000a900473ffffffffffffffffffffffffffffffffffffffff169050919050565b600061073d82610e4d565b90508073ffffffffffffffffffffffffffffffffffffffff168373ffffffffffffffffffffffffffffffffffffffff1614156107ae576040517f08c379a00000000000000000000000000000000000000000000000000000000081526004016107a590612bf0565b60405180910390fd5b8073ffffffffffffffffffffffffffffffffffffffff166107cd6114a4565b73ffffffffffffffffffffffffffffffffffffffff1614806107fc57506107fb816107f66114a4565b611322565b5b61083b576040517f08c379a000000000000000000000000000000000000000000000000000000000815260040161083290612b10565b60405180910390fd5b61084583836114ac565b505050565b600061085583610e4d565b9050600061086283610e4d565b90508173ffffffffffffffffffffffffffffffffffffffff163373ffffffffffffffffffffffffffffffffffffffff1614806108c957508073ffffffffffffffffffffffffffffffffffffffff163373ffffffffffffffffffffffffffffffffffffffff16145b6108d257600080fd5b6108dd828286610a22565b6108e8818385610a22565b50505050565b600660205280600052604060002060009150905080600001805461091190612ed0565b80601f016020809104026020016040519081016040528092919081815260200182805461093d90612ed0565b801561098a5780601f1061095f5761010080835404028352916020019161098a565b820191906000526020600020905b81548152906001019060200180831161096d57829003601f168201915b50505050509080600101805461099f90612ed0565b80601f01602080910402602001604051908101604052809291908181526020018280546109cb90612ed0565b8015610a185780601f106109ed57610100808354040283529160200191610a18565b820191906000526020600020905b8154815290600101906020018083116109fb57829003601f168201915b5050505050905082565b610a33610a2d6114a4565b82611565565b610a72576040517f08c379a0000000000000000000000000000000000000000000000000000000008152600401610a6990612c10565b60405180910390fd5b610a7d838383611643565b505050565b6000600760008381526020019081526020016000205411610ad8576040517f08c379a0000000000000000000000000000000000000000000000000000000008152600401610acf90612c30565b60405180910390fd5b6000600760008381526020019081526020016000205490506000610afb83610e4d565b9050813411610b3f576040517f08c379a0000000000000000000000000000000000000000000000000000000008152600401610b3690612c50565b60405180910390fd5b610b4a813385610a22565b6000610b558261189f565b90508073ffffffffffffffffffffffffffffffffffffffff166108fc849081150290604051600060405180830381858888f19350505050158015610b9d573d6000803e3d6000fd5b5082341115610c07576000610bb13361189f565b90508073ffffffffffffffffffffffffffffffffffffffff166108fc8534610bd99190612de6565b9081150290604051600060405180830381858888f19350505050158015610c04573d6000803e3d6000fd5b50505b50505050565b3373ffffffffffffffffffffffffffffffffffffffff16610c2d83610e4d565b73ffffffffffffffffffffffffffffffffffffffff1614610c4d57600080fd5b8060076000848152602001908152602001600020819055505050565b606080600660008481526020019081526020016000206000018054610c8d90612ed0565b80601f0160208091040260200160405190810160405280929190818152602001828054610cb990612ed0565b8015610d065780601f10610cdb57610100808354040283529160200191610d06565b820191906000526020600020905b815481529060010190602001808311610ce957829003601f168201915b50505050509150600660008481526020019081526020016000206001018054610d2e90612ed0565b80601f0160208091040260200160405190810160405280929190818152602001828054610d5a90612ed0565b8015610da75780601f10610d7c57610100808354040283529160200191610da7565b820191906000526020600020905b815481529060010190602001808311610d8a57829003601f168201915b50505050509050915091565b610dce838383604051806020016040528060008152506111ca565b505050565b6000604051806040016040528085815260200184815250905080600660008481526020019081526020016000206000820151816000019080519060200190610e1c929190611e46565b506020820151816001019080519060200190610e39929190611e46565b50905050610e4733836118a9565b50505050565b6000806002600084815260200190815260200160002060009054906101000a900473ffffffffffffffffffffffffffffffffffffffff169050600073ffffffffffffffffffffffffffffffffffffffff168173ffffffffffffffffffffffffffffffffffffffff161415610ef6576040517f08c379a0000000000000000000000000000000000000000000000000000000008152600401610eed90612b50565b60405180910390fd5b80915050919050565b60008073ffffffffffffffffffffffffffffffffffffffff168273ffffffffffffffffffffffffffffffffffffffff161415610f70576040517f08c379a0000000000000000000000000000000000000000000000000000000008152600401610f6790612b30565b60405180910390fd5b600360008373ffffffffffffffffffffffffffffffffffffffff1673ffffffffffffffffffffffffffffffffffffffff168152602001908152602001600020549050919050565b606060018054610fc690612ed0565b80601f0160208091040260200160405190810160405280929190818152602001828054610ff290612ed0565b801561103f5780601f106110145761010080835404028352916020019161103f565b820191906000526020600020905b81548152906001019060200180831161102257829003601f168201915b5050505050905090565b6110516114a4565b73ffffffffffffffffffffffffffffffffffffffff168273ffffffffffffffffffffffffffffffffffffffff1614156110bf576040517f08c379a00000000000000000000000000000000000000000000000000000000081526004016110b690612ad0565b60405180910390fd5b80600560006110cc6114a4565b73ffffffffffffffffffffffffffffffffffffffff1673ffffffffffffffffffffffffffffffffffffffff16815260200190815260200160002060008473ffffffffffffffffffffffffffffffffffffffff1673ffffffffffffffffffffffffffffffffffffffff16815260200190815260200160002060006101000a81548160ff0219169083151502179055508173ffffffffffffffffffffffffffffffffffffffff166111796114a4565b73ffffffffffffffffffffffffffffffffffffffff167f17307eab39ab6107e8899845ad3d59bd9653f200f220920489ca2b5937696c31836040516111be91906129fc565b60405180910390a35050565b6111db6111d56114a4565b83611565565b61121a576040517f08c379a000000000000000000000000000000000000000000000000000000000815260040161121190612c10565b60405180910390fd5b61122684848484611a77565b50505050565b606061123782611438565b611276576040517f08c379a000000000000000000000000000000000000000000000000000000000815260040161126d90612bd0565b60405180910390fd5b6000611280611ad3565b905060008151116112a057604051806020016040528060008152506112cb565b806112aa84611aea565b6040516020016112bb929190612971565b6040516020818303038152906040525b915050919050565b6112dc81610e4d565b73ffffffffffffffffffffffffffffffffffffffff163373ffffffffffffffffffffffffffffffffffffffff161461131357600080fd5b61131e338383610a22565b5050565b6000600560008473ffffffffffffffffffffffffffffffffffffffff1673ffffffffffffffffffffffffffffffffffffffff16815260200190815260200160002060008373ffffffffffffffffffffffffffffffffffffffff1673ffffffffffffffffffffffffffffffffffffffff16815260200190815260200160002060009054906101000a900460ff16905092915050565b60076020528060005260406000206000915090505481565b60007f01ffc9a7000000000000000000000000000000000000000000000000000000007bffffffffffffffffffffffffffffffffffffffffffffffffffffffff1916827bffffffffffffffffffffffffffffffffffffffffffffffffffffffff1916149050919050565b60008073ffffffffffffffffffffffffffffffffffffffff166002600084815260200190815260200160002060009054906101000a900473ffffffffffffffffffffffffffffffffffffffff1673ffffffffffffffffffffffffffffffffffffffff1614159050919050565b600033905090565b816004600083815260200190815260200160002060006101000a81548173ffffffffffffffffffffffffffffffffffffffff021916908373ffffffffffffffffffffffffffffffffffffffff160217905550808273ffffffffffffffffffffffffffffffffffffffff1661151f83610e4d565b73ffffffffffffffffffffffffffffffffffffffff167f8c5be1e5ebec7d5bd14f71427d1e84f3dd0314c0f7b2291e5b200ac8c7c3b92560405160405180910390a45050565b600061157082611438565b6115af576040517f08c379a00000000000000000000000000000000000000000000000000000000081526004016115a690612af0565b60405180910390fd5b60006115ba83610e4d565b90508073ffffffffffffffffffffffffffffffffffffffff168473ffffffffffffffffffffffffffffffffffffffff16148061162957508373ffffffffffffffffffffffffffffffffffffffff16611611846106ad565b73ffffffffffffffffffffffffffffffffffffffff16145b8061163a57506116398185611322565b5b91505092915050565b8273ffffffffffffffffffffffffffffffffffffffff1661166382610e4d565b73ffffffffffffffffffffffffffffffffffffffff16146116b9576040517f08c379a00000000000000000000000000000000000000000000000000000000081526004016116b090612bb0565b60405180910390fd5b600073ffffffffffffffffffffffffffffffffffffffff168273ffffffffffffffffffffffffffffffffffffffff161415611729576040517f08c379a000000000000000000000000000000000000000000000000000000000815260040161172090612ab0565b60405180910390fd5b611734838383611c97565b61173f6000826114ac565b6001600360008573ffffffffffffffffffffffffffffffffffffffff1673ffffffffffffffffffffffffffffffffffffffff168152602001908152602001600020600082825461178f9190612de6565b925050819055506001600360008473ffffffffffffffffffffffffffffffffffffffff1673ffffffffffffffffffffffffffffffffffffffff16815260200190815260200160002060008282546117e69190612d5f565b92505081905550816002600083815260200190815260200160002060006101000a81548173ffffffffffffffffffffffffffffffffffffffff021916908373ffffffffffffffffffffffffffffffffffffffff160217905550808273ffffffffffffffffffffffffffffffffffffffff168473ffffffffffffffffffffffffffffffffffffffff167fddf252ad1be2c89b69c2b068fc378daa952ba7f163c4a11628f55a4df523b3ef60405160405180910390a4505050565b6000819050919050565b600073ffffffffffffffffffffffffffffffffffffffff168273ffffffffffffffffffffffffffffffffffffffff161415611919576040517f08c379a000000000000000000000000000000000000000000000000000000000815260040161191090612b70565b60405180910390fd5b61192281611438565b15611962576040517f08c379a000000000000000000000000000000000000000000000000000000000815260040161195990612a90565b60405180910390fd5b61196e60008383611c97565b6001600360008473ffffffffffffffffffffffffffffffffffffffff1673ffffffffffffffffffffffffffffffffffffffff16815260200190815260200160002060008282546119be9190612d5f565b92505081905550816002600083815260200190815260200160002060006101000a81548173ffffffffffffffffffffffffffffffffffffffff021916908373ffffffffffffffffffffffffffffffffffffffff160217905550808273ffffffffffffffffffffffffffffffffffffffff16600073ffffffffffffffffffffffffffffffffffffffff167fddf252ad1be2c89b69c2b068fc378daa952ba7f163c4a11628f55a4df523b3ef60405160405180910390a45050565b611a82848484611643565b611a8e84848484611c9c565b611acd576040517f08c379a0000000000000000000000000000000000000000000000000000000008152600401611ac490612a70565b60405180910390fd5b50505050565b606060405180602001604052806000815250905090565b60606000821415611b32576040518060400160405280600181526020017f30000000000000000000000000000000000000000000000000000000000000008152509050611c92565b600082905060005b60008214611b64578080611b4d90612f02565b915050600a82611b5d9190612db5565b9150611b3a565b60008167ffffffffffffffff811115611ba6577f4e487b7100000000000000000000000000000000000000000000000000000000600052604160045260246000fd5b6040519080825280601f01601f191660200182016040528015611bd85781602001600182028036833780820191505090505b5090505b60008514611c8b57600182611bf19190612de6565b9150600a85611c009190612f4b565b6030611c0c9190612d5f565b60f81b818381518110611c48577f4e487b7100000000000000000000000000000000000000000000000000000000600052603260045260246000fd5b60200101907effffffffffffffffffffffffffffffffffffffffffffffffffffffffffffff1916908160001a905350600a85611c849190612db5565b9450611bdc565b8093505050505b919050565b505050565b6000611cbd8473ffffffffffffffffffffffffffffffffffffffff16611e33565b15611e26578373ffffffffffffffffffffffffffffffffffffffff1663150b7a02611ce66114a4565b8786866040518563ffffffff1660e01b8152600401611d0894939291906129b0565b602060405180830381600087803b158015611d2257600080fd5b505af1925050508015611d5357506040513d601f19601f82011682018060405250810190611d5091906121f2565b60015b611dd6573d8060008114611d83576040519150601f19603f3d011682016040523d82523d6000602084013e611d88565b606091505b50600081511415611dce576040517f08c379a0000000000000000000000000000000000000000000000000000000008152600401611dc590612a70565b60405180910390fd5b805181602001fd5b63150b7a0260e01b7bffffffffffffffffffffffffffffffffffffffffffffffffffffffff1916817bffffffffffffffffffffffffffffffffffffffffffffffffffffffff191614915050611e2b565b600190505b949350505050565b600080823b905060008111915050919050565b828054611e5290612ed0565b90600052602060002090601f016020900481019282611e745760008555611ebb565b82601f10611e8d57805160ff1916838001178555611ebb565b82800160010185558215611ebb579182015b82811115611eba578251825591602001919060010190611e9f565b5b509050611ec89190611ecc565b5090565b5b80821115611ee5576000816000905550600101611ecd565b5090565b6000611efc611ef784612cbc565b612c8b565b905082815260208101848484011115611f1457600080fd5b611f1f848285612e8e565b509392505050565b6000611f3a611f3584612cec565b612c8b565b905082815260208101848484011115611f5257600080fd5b611f5d848285612e8e565b509392505050565b600081359050611f7481613049565b92915050565b600081359050611f8981613060565b92915050565b600081359050611f9e81613077565b92915050565b600081519050611fb381613077565b92915050565b600082601f830112611fca57600080fd5b8135611fda848260208601611ee9565b91505092915050565b600082601f830112611ff457600080fd5b8135612004848260208601611f27565b91505092915050565b60008135905061201c8161308e565b92915050565b60006020828403121561203457600080fd5b600061204284828501611f65565b91505092915050565b6000806040838503121561205e57600080fd5b600061206c85828601611f65565b925050602061207d85828601611f65565b9150509250929050565b60008060006060848603121561209c57600080fd5b60006120aa86828701611f65565b93505060206120bb86828701611f65565b92505060406120cc8682870161200d565b9150509250925092565b600080600080608085870312156120ec57600080fd5b60006120fa87828801611f65565b945050602061210b87828801611f65565b935050604061211c8782880161200d565b925050606085013567ffffffffffffffff81111561213957600080fd5b61214587828801611fb9565b91505092959194509250565b6000806040838503121561216457600080fd5b600061217285828601611f65565b925050602061218385828601611f7a565b9150509250929050565b600080604083850312156121a057600080fd5b60006121ae85828601611f65565b92505060206121bf8582860161200d565b9150509250929050565b6000602082840312156121db57600080fd5b60006121e984828501611f8f565b91505092915050565b60006020828403121561220457600080fd5b600061221284828501611fa4565b91505092915050565b60008060006060848603121561223057600080fd5b600084013567ffffffffffffffff81111561224a57600080fd5b61225686828701611fe3565b935050602084013567ffffffffffffffff81111561227357600080fd5b61227f86828701611fe3565b92505060406122908682870161200d565b9150509250925092565b6000602082840312156122ac57600080fd5b60006122ba8482850161200d565b91505092915050565b600080604083850312156122d657600080fd5b60006122e48582860161200d565b92505060206122f58582860161200d565b9150509250929050565b61230881612e1a565b82525050565b61231781612e2c565b82525050565b600061232882612d1c565b6123328185612d32565b9350612342818560208601612e9d565b61234b81613038565b840191505092915050565b600061236182612d27565b61236b8185612d43565b935061237b818560208601612e9d565b61238481613038565b840191505092915050565b600061239a82612d27565b6123a48185612d54565b93506123b4818560208601612e9d565b80840191505092915050565b60006123cd603283612d43565b91507f4552433732313a207472616e7366657220746f206e6f6e20455243373231526560008301527f63656976657220696d706c656d656e74657200000000000000000000000000006020830152604082019050919050565b6000612433601c83612d43565b91507f4552433732313a20746f6b656e20616c7265616479206d696e746564000000006000830152602082019050919050565b6000612473602483612d43565b91507f4552433732313a207472616e7366657220746f20746865207a65726f2061646460008301527f72657373000000000000000000000000000000000000000000000000000000006020830152604082019050919050565b60006124d9601983612d43565b91507f4552433732313a20617070726f766520746f2063616c6c6572000000000000006000830152602082019050919050565b6000612519602c83612d43565b91507f4552433732313a206f70657261746f7220717565727920666f72206e6f6e657860008301527f697374656e7420746f6b656e00000000000000000000000000000000000000006020830152604082019050919050565b600061257f603883612d43565b91507f4552433732313a20617070726f76652063616c6c6572206973206e6f74206f7760008301527f6e6572206e6f7220617070726f76656420666f7220616c6c00000000000000006020830152604082019050919050565b60006125e5602a83612d43565b91507f4552433732313a2062616c616e636520717565727920666f7220746865207a6560008301527f726f2061646472657373000000000000000000000000000000000000000000006020830152604082019050919050565b600061264b602983612d43565b91507f4552433732313a206f776e657220717565727920666f72206e6f6e657869737460008301527f656e7420746f6b656e00000000000000000000000000000000000000000000006020830152604082019050919050565b60006126b1602083612d43565b91507f4552433732313a206d696e7420746f20746865207a65726f20616464726573736000830152602082019050919050565b60006126f1602c83612d43565b91507f4552433732313a20617070726f76656420717565727920666f72206e6f6e657860008301527f697374656e7420746f6b656e00000000000000000000000000000000000000006020830152604082019050919050565b6000612757602983612d43565b91507f4552433732313a207472616e73666572206f6620746f6b656e2074686174206960008301527f73206e6f74206f776e00000000000000000000000000000000000000000000006020830152604082019050919050565b60006127bd602f83612d43565b91507f4552433732314d657461646174613a2055524920717565727920666f72206e6f60008301527f6e6578697374656e7420746f6b656e00000000000000000000000000000000006020830152604082019050919050565b6000612823602183612d43565b91507f4552433732313a20617070726f76616c20746f2063757272656e74206f776e6560008301527f72000000000000000000000000000000000000000000000000000000000000006020830152604082019050919050565b6000612889603183612d43565b91507f4552433732313a207472616e736665722063616c6c6572206973206e6f74206f60008301527f776e6572206e6f7220617070726f7665640000000000000000000000000000006020830152604082019050919050565b60006128ef601983612d43565b91507f5468652073686f756c6420626520757020666f722073616c65000000000000006000830152602082019050919050565b600061292f601d83612d43565b91507f596f75206e65656420746f206861766520656e6f7567682065746865720000006000830152602082019050919050565b61296b81612e84565b82525050565b600061297d828561238f565b9150612989828461238f565b91508190509392505050565b60006020820190506129aa60008301846122ff565b92915050565b60006080820190506129c560008301876122ff565b6129d260208301866122ff565b6129df6040830185612962565b81810360608301526129f1818461231d565b905095945050505050565b6000602082019050612a11600083018461230e565b92915050565b60006020820190508181036000830152612a318184612356565b905092915050565b60006040820190508181036000830152612a538185612356565b90508181036020830152612a678184612356565b90509392505050565b60006020820190508181036000830152612a89816123c0565b9050919050565b60006020820190508181036000830152612aa981612426565b9050919050565b60006020820190508181036000830152612ac981612466565b9050919050565b60006020820190508181036000830152612ae9816124cc565b9050919050565b60006020820190508181036000830152612b098161250c565b9050919050565b60006020820190508181036000830152612b2981612572565b9050919050565b60006020820190508181036000830152612b49816125d8565b9050919050565b60006020820190508181036000830152612b698161263e565b9050919050565b60006020820190508181036000830152612b89816126a4565b9050919050565b60006020820190508181036000830152612ba9816126e4565b9050919050565b60006020820190508181036000830152612bc98161274a565b9050919050565b60006020820190508181036000830152612be9816127b0565b9050919050565b60006020820190508181036000830152612c0981612816565b9050919050565b60006020820190508181036000830152612c298161287c565b9050919050565b60006020820190508181036000830152612c49816128e2565b9050919050565b60006020820190508181036000830152612c6981612922565b9050919050565b6000602082019050612c856000830184612962565b92915050565b6000604051905081810181811067ffffffffffffffff82111715612cb257612cb1613009565b5b8060405250919050565b600067ffffffffffffffff821115612cd757612cd6613009565b5b601f19601f8301169050602081019050919050565b600067ffffffffffffffff821115612d0757612d06613009565b5b601f19601f8301169050602081019050919050565b600081519050919050565b600081519050919050565b600082825260208201905092915050565b600082825260208201905092915050565b600081905092915050565b6000612d6a82612e84565b9150612d7583612e84565b9250827fffffffffffffffffffffffffffffffffffffffffffffffffffffffffffffffff03821115612daa57612da9612f7c565b5b828201905092915050565b6000612dc082612e84565b9150612dcb83612e84565b925082612ddb57612dda612fab565b5b828204905092915050565b6000612df182612e84565b9150612dfc83612e84565b925082821015612e0f57612e0e612f7c565b5b828203905092915050565b6000612e2582612e64565b9050919050565b60008115159050919050565b60007fffffffff0000000000000000000000000000000000000000000000000000000082169050919050565b600073ffffffffffffffffffffffffffffffffffffffff82169050919050565b6000819050919050565b82818337600083830152505050565b60005b83811015612ebb578082015181840152602081019050612ea0565b83811115612eca576000848401525b50505050565b60006002820490506001821680612ee857607f821691505b60208210811415612efc57612efb612fda565b5b50919050565b6000612f0d82612e84565b91507fffffffffffffffffffffffffffffffffffffffffffffffffffffffffffffffff821415612f4057612f3f612f7c565b5b600182019050919050565b6000612f5682612e84565b9150612f6183612e84565b925082612f7157612f70612fab565b5b828206905092915050565b7f4e487b7100000000000000000000000000000000000000000000000000000000600052601160045260246000fd5b7f4e487b7100000000000000000000000000000000000000000000000000000000600052601260045260246000fd5b7f4e487b7100000000000000000000000000000000000000000000000000000000600052602260045260246000fd5b7f4e487b7100000000000000000000000000000000000000000000000000000000600052604160045260246000fd5b6000601f19601f8301169050919050565b61305281612e1a565b811461305d57600080fd5b50565b61306981612e2c565b811461307457600080fd5b50565b61308081612e38565b811461308b57600080fd5b50565b61309781612e84565b81146130a257600080fd5b5056fea2646970667358221220155242dcbde375ed55736f516c6c541ae7b9d868fe2b7d1ab5791922d211d1b764736f6c63430008000033",
  "immutableReferences": {},
  "source": "// SPDX-License-Identifier: MIT\npragma solidity ^0.8.0;\n\nimport '@openzeppelin/contracts/token/ERC721/ERC721.sol';\n\ncontract StarToken is ERC721 {\n\n  struct Star {\n    string name;\n    string date;\n  }\n\n  mapping(uint256 => Star) public tokenIdToStarInfo;\n  mapping(uint256 => uint256) public tokenIdToPrice;\n\n  constructor(string memory _name, string memory _symbol) ERC721(_name, _symbol) {}\n\n  function createStar(string memory _name, string memory _date, uint256 _tokenId) public {\n    Star memory newStar = Star(_name, _date);\n    tokenIdToStarInfo[_tokenId] = newStar;\n    _mint(msg.sender, _tokenId);\n  }\n\n  function putStarUpForSale(uint256 _tokenId, uint256 _price) public {\n    require(ownerOf(_tokenId) == msg.sender);\n    tokenIdToPrice[_tokenId] = _price;\n  }\n\n  function _make_payable(address x) internal pure returns (address payable) {\n    return payable(address(uint160(x)));\n  }\n\n  function buyStar(uint256 _tokenId) public payable {\n    require(tokenIdToPrice[_tokenId] > 0, \"The should be up for sale\");\n    uint256 starCost = tokenIdToPrice[_tokenId];\n    address ownerAddress = ownerOf(_tokenId);\n    require(msg.value > starCost, \"You need to have enough ether\");\n    transferFrom(ownerAddress, msg.sender, _tokenId);\n    address payable ownerAddressPayable = _make_payable(ownerAddress);\n    ownerAddressPayable.transfer(starCost);\n    if (msg.value > starCost) {\n      address payable buyer = _make_payable(msg.sender);\n      buyer.transfer(msg.value - starCost);\n    }\n  }\n\n  function exchangeStars(uint256 _tokenId1, uint256 _tokenId2) public {\n    address owner1 = ownerOf(_tokenId1);\n    address owner2 = ownerOf(_tokenId2);\n    require(msg.sender == owner1 || msg.sender == owner2);\n    transferFrom(owner1, owner2, _tokenId1);\n    transferFrom(owner2, owner1, _tokenId2);\n  }\n\n  function transferStar(address _to, uint256 _tokenId) public {\n    require(msg.sender == ownerOf(_tokenId));\n    transferFrom(msg.sender, _to, _tokenId);\n  }\n\n  function lookUpTokenIdToStarInfo(uint256 _tokenId) public view returns (string memory _name, string memory _date) {\n    _name = tokenIdToStarInfo[_tokenId].name;\n    _date = tokenIdToStarInfo[_tokenId].date;\n  }\n}\n",
  "sourcePath": "C:\\Users\\jgtec\\.jg\\erc721-token\\contracts\\StarToken.sol",
  "compiler": {
    "name": "solc",
    "version": "0.8.0+commit.c7dfd78e.Emscripten.clang"
  },
  "schemaVersion": "3.4.3",
  "updatedAt": "2021-08-28T19:09:34.882Z",
  "networkType": "ethereum",
  "devdoc": {
    "kind": "dev",
    "methods": {
      "approve(address,uint256)": {
        "details": "See {IERC721-approve}."
      },
      "balanceOf(address)": {
        "details": "See {IERC721-balanceOf}."
      },
      "getApproved(uint256)": {
        "details": "See {IERC721-getApproved}."
      },
      "isApprovedForAll(address,address)": {
        "details": "See {IERC721-isApprovedForAll}."
      },
      "name()": {
        "details": "See {IERC721Metadata-name}."
      },
      "ownerOf(uint256)": {
        "details": "See {IERC721-ownerOf}."
      },
      "safeTransferFrom(address,address,uint256)": {
        "details": "See {IERC721-safeTransferFrom}."
      },
      "safeTransferFrom(address,address,uint256,bytes)": {
        "details": "See {IERC721-safeTransferFrom}."
      },
      "setApprovalForAll(address,bool)": {
        "details": "See {IERC721-setApprovalForAll}."
      },
      "supportsInterface(bytes4)": {
        "details": "See {IERC165-supportsInterface}."
      },
      "symbol()": {
        "details": "See {IERC721Metadata-symbol}."
      },
      "tokenURI(uint256)": {
        "details": "See {IERC721Metadata-tokenURI}."
      },
      "transferFrom(address,address,uint256)": {
        "details": "See {IERC721-transferFrom}."
      }
    },
    "version": 1
  },
  "userdoc": {
    "kind": "user",
    "methods": {},
    "version": 1
  }
}